{"abi":[{"type":"constructor","inputs":[{"name":"_token","type":"address","internalType":"address"},{"name":"_agent","type":"address","internalType":"address"}],"stateMutability":"nonpayable"},{"type":"function","name":"agent","inputs":[],"outputs":[{"name":"","type":"address","internalType":"address"}],"stateMutability":"view"},{"type":"function","name":"cancelSchedule","inputs":[{"name":"_scheduleId","type":"uint256","internalType":"uint256"}],"outputs":[],"stateMutability":"nonpayable"},{"type":"function","name":"createSchedule","inputs":[{"name":"_recipient","type":"address","internalType":"address"},{"name":"_recipientName","type":"string","internalType":"string"},{"name":"_recipientPhone","type":"string","internalType":"string"},{"name":"_amount","type":"uint256","internalType":"uint256"},{"name":"_frequency","type":"uint256","internalType":"uint256"},{"name":"_startDate","type":"uint256","internalType":"uint256"},{"name":"_hasMonthlyLimit","type":"bool","internalType":"bool"},{"name":"_maxMonthlyAmount","type":"uint256","internalType":"uint256"}],"outputs":[{"name":"","type":"uint256","internalType":"uint256"}],"stateMutability":"nonpayable"},{"type":"function","name":"editSchedule","inputs":[{"name":"_scheduleId","type":"uint256","internalType":"uint256"},{"name":"_newAmount","type":"uint256","internalType":"uint256"},{"name":"_newHasMonthlyLimit","type":"bool","internalType":"bool"},{"name":"_newMaxMonthlyAmount","type":"uint256","internalType":"uint256"}],"outputs":[],"stateMutability":"nonpayable"},{"type":"function","name":"executeScheduledPayment","inputs":[{"name":"_scheduleId","type":"uint256","internalType":"uint256"}],"outputs":[],"stateMutability":"nonpayable"},{"type":"function","name":"getSchedule","inputs":[{"name":"_scheduleId","type":"uint256","internalType":"uint256"}],"outputs":[{"name":"","type":"tuple","internalType":"struct RemittanceContract.Schedule","components":[{"name":"id","type":"uint256","internalType":"uint256"},{"name":"owner","type":"address","internalType":"address"},{"name":"recipient","type":"address","internalType":"address"},{"name":"amount","type":"uint256","internalType":"uint256"},{"name":"frequency","type":"uint256","internalType":"uint256"},{"name":"startDate","type":"uint256","internalType":"uint256"},{"name":"nextExecutionTimestamp","type":"uint256","internalType":"uint256"},{"name":"hasMonthlyLimit","type":"bool","internalType":"bool"},{"name":"maxMonthlyAmount","type":"uint256","internalType":"uint256"},{"name":"currentMonthPaid","type":"uint256","internalType":"uint256"},{"name":"lastPaidMonthTimestamp","type":"uint256","internalType":"uint256"},{"name":"status","type":"uint256","internalType":"uint256"},{"name":"recipientName","type":"string","internalType":"string"},{"name":"recipientPhone","type":"string","internalType":"string"}]}],"stateMutability":"view"},{"type":"function","name":"owner","inputs":[],"outputs":[{"name":"","type":"address","internalType":"address"}],"stateMutability":"view"},{"type":"function","name":"pauseSchedule","inputs":[{"name":"_scheduleId","type":"uint256","internalType":"uint256"}],"outputs":[],"stateMutability":"nonpayable"},{"type":"function","name":"resumeSchedule","inputs":[{"name":"_scheduleId","type":"uint256","internalType":"uint256"}],"outputs":[],"stateMutability":"nonpayable"},{"type":"function","name":"scheduleCount","inputs":[],"outputs":[{"name":"","type":"uint256","internalType":"uint256"}],"stateMutability":"view"},{"type":"function","name":"schedules","inputs":[{"name":"","type":"uint256","internalType":"uint256"}],"outputs":[{"name":"id","type":"uint256","internalType":"uint256"},{"name":"owner","type":"address","internalType":"address"},{"name":"recipient","type":"address","internalType":"address"},{"name":"amount","type":"uint256","internalType":"uint256"},{"name":"frequency","type":"uint256","internalType":"uint256"},{"name":"startDate","type":"uint256","internalType":"uint256"},{"name":"nextExecutionTimestamp","type":"uint256","internalType":"uint256"},{"name":"hasMonthlyLimit","type":"bool","internalType":"bool"},{"name":"maxMonthlyAmount","type":"uint256","internalType":"uint256"},{"name":"currentMonthPaid","type":"uint256","internalType":"uint256"},{"name":"lastPaidMonthTimestamp","type":"uint256","internalType":"uint256"},{"name":"status","type":"uint256","internalType":"uint256"},{"name":"recipientName","type":"string","internalType":"string"},{"name":"recipientPhone","type":"string","internalType":"string"}],"stateMutability":"view"},{"type":"function","name":"setAgent","inputs":[{"name":"newAgent","type":"address","internalType":"address"}],"outputs":[],"stateMutability":"nonpayable"},{"type":"function","name":"token","inputs":[],"outputs":[{"name":"","type":"address","internalType":"contract IERC20"}],"stateMutability":"view"},{"type":"function","name":"transferOwnership","inputs":[{"name":"newOwner","type":"address","internalType":"address"}],"outputs":[],"stateMutability":"nonpayable"},{"type":"event","name":"AgentChanged","inputs":[{"name":"previousAgent","type":"address","indexed":true,"internalType":"address"},{"name":"newAgent","type":"address","indexed":true,"internalType":"address"}],"anonymous":false},{"type":"event","name":"OwnershipTransferred","inputs":[{"name":"previousOwner","type":"address","indexed":true,"internalType":"address"},{"name":"newOwner","type":"address","indexed":true,"internalType":"address"}],"anonymous":false},{"type":"event","name":"PaymentExecuted","inputs":[{"name":"scheduleId","type":"uint256","indexed":true,"internalType":"uint256"},{"name":"owner","type":"address","indexed":true,"internalType":"address"},{"name":"recipient","type":"address","indexed":true,"internalType":"address"},{"name":"amount","type":"uint256","indexed":false,"internalType":"uint256"},{"name":"nextExecutionTimestamp","type":"uint256","indexed":false,"internalType":"uint256"}],"anonymous":false},{"type":"event","name":"ScheduleCreated","inputs":[{"name":"scheduleId","type":"uint256","indexed":true,"internalType":"uint256"},{"name":"owner","type":"address","indexed":true,"internalType":"address"},{"name":"recipient","type":"address","indexed":true,"internalType":"address"},{"name":"amount","type":"uint256","indexed":false,"internalType":"uint256"},{"name":"frequency","type":"uint256","indexed":false,"internalType":"uint256"},{"name":"startDate","type":"uint256","indexed":false,"internalType":"uint256"}],"anonymous":false},{"type":"event","name":"ScheduleEdited","inputs":[{"name":"scheduleId","type":"uint256","indexed":true,"internalType":"uint256"},{"name":"amount","type":"uint256","indexed":false,"internalType":"uint256"},{"name":"hasMonthlyLimit","type":"bool","indexed":false,"internalType":"bool"},{"name":"maxMonthlyAmount","type":"uint256","indexed":false,"internalType":"uint256"}],"anonymous":false},{"type":"event","name":"ScheduleStatusChanged","inputs":[{"name":"scheduleId","type":"uint256","indexed":true,"internalType":"uint256"},{"name":"status","type":"uint256","indexed":true,"internalType":"uint256"}],"anonymous":false}],"bytecode":{"object":"0x60a03461018a57601f61166438819003918201601f19168301916001600160401b0383118484101761018e57808492604094855283398101031261018a57610052602061004b836101a2565b92016101a2565b6001600160a01b03909116908115610145576001600160a01b0316908115610100576080525f8054336001600160a01b03199182168117835560018054909216841790915560405192917f8be0079c531659141344cd1fd0a4f28419497f9722a3daafe3b4186f6b6457e08180a35f7fb21f1bf0d206b43eb02be4f423c2788a95affbda226125eaecabe3def8ba5c428180a36114ad90816101b7823960805181818160c801526101a90152f35b60405162461bcd60e51b815260206004820152601560248201527f496e76616c6964206167656e74206164647265737300000000000000000000006044820152606490fd5b60405162461bcd60e51b815260206004820152601560248201527f496e76616c696420746f6b656e206164647265737300000000000000000000006044820152606490fd5b5f80fd5b634e487b7160e01b5f52604160045260245ffd5b51906001600160a01b038216820361018a5756fe60806040526004361015610011575f80fd5b5f3560e01c806322603d0814611028578063237fc2a614610f6f578063635c1c6c14610ecb5780638da5cb5b14610ea4578063b7ef81e114610e87578063bcf685ed14610e04578063bdc6d9ab14610d05578063c5ca93a714610aed578063d2c9f4a014610a88578063f2fde38b14610a0d578063f5ff5c76146109e5578063f7c3125b1461047c578063fb8cf5d6146100fb5763fc0c546a146100b3575f80fd5b346100f7575f3660031901126100f7576040517f00000000000000000000000000000000000000000000000000000000000000006001600160a01b03168152602090f35b5f80fd5b346100f75760203660031901126100f757600154600435906001600160a01b0316330361044b57805f52600360205260405f20600b81019161013e8354156113bf565b600682018054421061040d5760ff600784015416610376575b6001830180546002850180546003870180546040516323b872dd60e01b81526001600160a01b039586166004820152928516602484015260448301529791969394939192602090829060649082905f907f0000000000000000000000000000000000000000000000000000000000000000165af190811561036b575f91610330575b50156102f357600401548061024e5750907f64dcc45c8bf26314103700cb3e251d47cdee628e30b916bbe4ad32ab67350bc6926003604093555f82556003855f5160206114585f395f51905f525f80a35b54945495549054825191825260208201526001600160a01b039586169590941693a4005b9050600181036102a9575080549062093a808201809211610295577f64dcc45c8bf26314103700cb3e251d47cdee628e30b916bbe4ad32ab67350bc692604092825561022a565b634e487b7160e01b5f52601160045260245ffd5b6002146102db575b6040907f64dcc45c8bf26314103700cb3e251d47cdee628e30b916bbe4ad32ab67350bc69261022a565b80549062278d008201809211610295579081556102b1565b60405162461bcd60e51b8152602060048201526015602482015274115490cc8c081d1c985b9cd9995c8819985a5b1959605a1b6044820152606490fd5b90506020813d602011610363575b8161034b602093836111a9565b810103126100f7575180151581036100f757886101d9565b3d915061033e565b6040513d5f823e3d90fd5b600a8301805462278d008101809111610295574210156103fe575b5060098301805460038501546103a7818361144a565b6008870154106103c1576103ba9161144a565b9055610157565b60405162461bcd60e51b8152602060048201526015602482015274115e18d959591cc81b5bdb9d1a1b1e481b1a5b5a5d605a1b6044820152606490fd5b5f600985015542905584610391565b60405162461bcd60e51b815260206004820152601660248201527514185e5b595b9d081a5cc81b9bdd08191d59481e595d60521b6044820152606490fd5b60405162461bcd60e51b8152602060048201526009602482015268139bdd081859d95b9d60ba1b6044820152606490fd5b346100f7576101003660031901126100f75761049661113e565b60243567ffffffffffffffff81116100f7576104b690369060040161128f565b909160443567ffffffffffffffff81116100f7576104d890369060040161128f565b939060c435948515158096036100f7576001600160a01b038416156109ac576001600160a01b03841633146109675761051460643515156112fe565b60026084351161092e57600254945f198614610295576105b9936105ac9160018801600255604051986105468a61118c565b600189018a523360208b015260018060a01b03881660408b015260643560608b015260843560808b015260a43560a08b015260a43560c08b015260e08a015260e4356101008a01525f6101208a015260a4356101408a01525f6101608a01523691611404565b6101808701523691611404565b6101a084015260018281015f90815260036020818152604092839020875181559087015193810180546001600160a01b039586166001600160a01b03199182161790915592870151600282018054919095169316929092179092556060850151918101919091556080840151600482015560a0840151600582015560c0840151600682015560e084015160078201805460ff191691151560ff1691909117905561010084015160088201556101208401516009820155610140840151600a820155610160840151600b820155600c810161018085015180519067ffffffffffffffff8211610854576106ab8354611154565b601f81116108dd575b50602090601f8311600114610873579180600d94926101a096945f92610868575b50508160011b915f199060031b1c19161790555b0193015192835167ffffffffffffffff8111610854576107098254611154565b601f8111610803575b50806020958690601f83116001146107a1575f92610796575b50508160011b915f199060031b1c19161790555b6040519060643582526084358483015260a435604083015260018060a01b03169033907fddd421efc90d7858fa6a7880aad747084ede7948673fc4ceb3d57209826c8add60606001860192a4600160405191018152f35b01519050868061072b565b5f8581528281209350601f198516905b8181106107ec57509084600195949392106107d4575b505050811b01905561073f565b01515f1960f88460031b161c191690558680806107c7565b9293896001819287860151815501950193016107b1565b818111156107125794825f5260205f20601f830160051c906020841061084c575b810196601f0160051c035f5b81811061083f57505094610712565b5f88820155600101610830565b5f9150610824565b634e487b7160e01b5f52604160045260245ffd5b0151905089806106d5565b90601f19831691845f52815f20925f5b8181106108c557509260019285926101a09896600d9896106108ad575b505050811b0190556106e9565b01515f1960f88460031b161c191690558980806108a0565b92936020600181928786015181550195019301610883565b828111156106b457835f5260205f20601f840160051c9060208510610926575b81601f9101920160051c03905f5b8281106109195750506106b4565b5f8282015560010161090b565b5f91506108fd565b60405162461bcd60e51b8152602060048201526011602482015270496e76616c6964206672657175656e637960781b6044820152606490fd5b60405162461bcd60e51b815260206004820152601760248201527f43616e6e6f742073656e6420746f20796f757273656c660000000000000000006044820152606490fd5b60405162461bcd60e51b8152602060048201526011602482015270125b9d985b1a59081c9958da5c1a595b9d607a1b6044820152606490fd5b346100f7575f3660031901126100f7576001546040516001600160a01b039091168152602090f35b346100f75760203660031901126100f757610a2661113e565b5f546001600160a01b03811691610a3e338414611349565b6001600160a01b0316918290610a55821515611381565b7f8be0079c531659141344cd1fd0a4f28419497f9722a3daafe3b4186f6b6457e05f80a36001600160a01b031916175f55005b346100f75760203660031901126100f7576001600435805f526003602052610abe828060a01b038360405f2001541633146112bd565b805f52600360205281600b60405f2001610ad98154156113bf565b555f5160206114585f395f51905f525f80a3005b346100f75760203660031901126100f757604051610b0a8161118c565b5f8152602081015f9052604081015f9052606081015f9052608081015f905260a081015f905260c081015f905260e081015f905261010081015f905261012081015f905261014081015f905261016081015f90526101808101606090526101a001606090526004355f52600360205260405f20604051610b898161118c565b81548152600160a01b600190036001830154169160208201928352600160a01b600190036002820154169060408301918252600381015460608401908152600482015460808501908152600583015460a08601908152600684015460c08701908152600785015460ff1660e08801901515815260088601549161010089019283526009870154936101208a01948552600a880154956101408b01968752600b890154976101608c01988952600c8a01610c41906111cb565b996101808d019a8b52600d01610c56906111cb565b9a6101a08d019b8c52604051809e819e60208352516020830152600160a01b600190039051169060400152600160a01b6001900390511660608d01525160808c01525160a08b01525160c08a01525160e089015251151561010088015251610120870152516101408601525161016085015251610180840152516101a083016101c090526101e08301610ce89161126b565b9051828203601f19016101c0840152610d01919061126b565b0390f35b346100f75760203660031901126100f7576004355f52600360205260405f208054600160a01b6001900360018301541691600160a01b60019003600282015416906003810154600482015460058301546006840154600785015460ff16600886015491600987015493600a88015495600b89015497600c8a01610d87906111cb565b99600d01610d94906111cb565b9a6040519d8e809e81526020015260408d015260608c015260808b015260a08a015260c0890152151560e088015261010087015261012086015261014085015261016084015261018083016101c090526101c08301610df29161126b565b8281036101a0840152610d019161126b565b346100f75760203660031901126100f757610e1d61113e565b610e3160018060a01b035f54163314611349565b6001600160a01b0316610e45811515611381565b600154816001600160a01b0382167fb21f1bf0d206b43eb02be4f423c2788a95affbda226125eaecabe3def8ba5c425f80a36001600160a01b03191617600155005b346100f7575f3660031901126100f7576020600254604051908152f35b346100f7575f3660031901126100f7575f546040516001600160a01b039091168152602090f35b346100f75760203660031901126100f757600435805f526003602052610f0160018060a01b03600160405f2001541633146112bd565b805f526003602052600b60405f2001906001825403610f31575f8092555f5160206114585f395f51905f528280a3005b60405162461bcd60e51b815260206004820152601660248201527514d8da19591d5b19481a5cc81b9bdd081c185d5cd95960521b6044820152606490fd5b346100f75760203660031901126100f757600435805f526003602052610fa560018060a01b03600160405f2001541633146112bd565b805f526003602052600b60405f2001908154801590811561101d575b5015610fdf5760028092555f5160206114585f395f51905f525f80a3005b60405162461bcd60e51b815260206004820152601660248201527514d8da19591d5b1948185b1c9958591e48195b99195960521b6044820152606490fd5b600191501483610fc1565b346100f75760803660031901126100f757600435602435604435801515918282036100f757606435845f52600360205261107260018060a01b03600160405f2001541633146112bd565b845f52600360205260405f2093600b8501548015908115611133575b50156110fa578160087f59ac9e6823dfffe2e634584eb159a4a5fda99838d02bd7d2c6d30ebb0ec4fff1966110e56060976110ca8815156112fe565b876003840155600783019060ff801983541691151516179055565b015560405192835260208301526040820152a2005b60405162461bcd60e51b8152602060048201526011602482015270496e616374697665207363686564756c6560781b6044820152606490fd5b60019150148761108e565b600435906001600160a01b03821682036100f757565b90600182811c92168015611182575b602083101461116e57565b634e487b7160e01b5f52602260045260245ffd5b91607f1691611163565b6101c0810190811067ffffffffffffffff82111761085457604052565b90601f8019910116810190811067ffffffffffffffff82111761085457604052565b9060405191825f8254926111de84611154565b80845293600181169081156112495750600114611205575b50611203925003836111a9565b565b90505f9291925260205f20905f915b81831061122d575050906020611203928201015f6111f6565b6020919350806001915483858901015201910190918492611214565b90506020925061120394915060ff191682840152151560051b8201015f6111f6565b805180835260209291819084018484015e5f828201840152601f01601f1916010190565b9181601f840112156100f75782359167ffffffffffffffff83116100f757602083818601950101116100f757565b156112c457565b60405162461bcd60e51b81526020600482015260126024820152712737ba1039b1b432b23ab6329037bbb732b960711b6044820152606490fd5b1561130557565b606460405162461bcd60e51b815260206004820152602060248201527f416d6f756e74206d7573742062652067726561746572207468616e207a65726f6044820152fd5b1561135057565b60405162461bcd60e51b81526020600482015260096024820152682737ba1037bbb732b960b91b6044820152606490fd5b1561138857565b60405162461bcd60e51b815260206004820152600f60248201526e496e76616c6964206164647265737360881b6044820152606490fd5b156113c657565b60405162461bcd60e51b81526020600482015260166024820152755363686564756c65206973206e6f742061637469766560501b6044820152606490fd5b92919267ffffffffffffffff8211610854576040519161142e601f8201601f1916602001846111a9565b8294818452818301116100f7578281602093845f960137010152565b919082018092116102955756fe7bdbd6b79d0ef4b190127f9a6666aac9afc92afa7dec4a49f54d9853dc36498ba26469706673582212207010cf63d8a592d6e601b1a83907f7d9ff1f74d4b108face05e473dfbc8c996564736f6c63430008230033","linkReferences":{}},"methodIdentifiers":{"agent()":"f5ff5c76","cancelSchedule(uint256)":"237fc2a6","createSchedule(address,string,string,uint256,uint256,uint256,bool,uint256)":"f7c3125b","editSchedule(uint256,uint256,bool,uint256)":"22603d08","executeScheduledPayment(uint256)":"fb8cf5d6","getSchedule(uint256)":"c5ca93a7","owner()":"8da5cb5b","pauseSchedule(uint256)":"d2c9f4a0","resumeSchedule(uint256)":"635c1c6c","scheduleCount()":"b7ef81e1","schedules(uint256)":"bdc6d9ab","setAgent(address)":"bcf685ed","token()":"fc0c546a","transferOwnership(address)":"f2fde38b"},"id":19}